:020000040800F2
:1000000060040020B1010008B5010008B701000834
:10001000B9010008BB010008BD0100080000000094
:10002000000000000000000000000000BF01000808
:10003000C101000800000000C3010008C50100085C
:10004000C7010008C7010008C7010008C701000870
:10005000C7010008C7010008C7010008C701000860
:10006000C7010008C7010008C7010008C701000850
:10007000C7010008C7010008C7010008C701000840
:10008000C7010008C7010008C7010008C701000830
:10009000C7010008C7010008C7010008C701000820
:1000A000C7010008C7010008C7010008C701000810
:1000B000C7010008C7010008C7010008C701000800
:1000C000C7010008C7010008C7010008C7010008F0
:1000D000C7010008C7010008C7010008C7010008E0
:1000E000C7010008C7010008C7010008C7010008D0
:1000F000C7010008C7010008C7010008C7010008C0
:10010000C7010008C7010008C7010008C7010008AF
:10011000C7010008C7010008C7010008C70100089F
:10012000C7010008C7010008C7010008C70100088F
:1001300000F002F800F02CF80AA090E8000C8244CD
:100140008344AAF10107DA4501D100F021F8AFF2AA
:10015000090EBAE80F0013F0010F18BFFB1A43F0A5
:1001600001031847A8010000B80100000023002483
:1001700000250026103A28BF78C1FBD8520728BFB7
:1001800030C148BF0B6070471FB51FBD10B510BD13
:1001900000F02BF81146FFF7F7FF00F06FF800F0C2
:1001A00049F803B4FFF7F2FF03BC00F051F8000078
:1001B00008480047FEE7FEE7FEE7FEE7FEE7FEE74A
:1001C000FEE7FEE7FEE7FEE703480449024A044B68
:1001D000704700003101000860000020600400202A
:1001E00060000020704770477047754600F02CF89B
:1001F000AE4605006946534620F00700854618B014
:1002000020B5FFF7E1FFBDE820404FF000064FF0BA
:1002100000074FF000084FF0000BAC46ACE8C009F7
:10022000ACE8C009ACE8C009ACE8C00921F007019E
:100230008D46704710B50446AFF300802046BDE8F8
:100240001040FFF7AEBF00000048704700000020DC
:1002500001491820ABBEFEE72600020070470000EF
:1002600081B000900098411E009120B10098411E7D
:1002700000280091FAD101B07047000041F2180047
:10028000C4F20200016840F60C0541F02401C4F2FA
:100290000105016055F8080C012161F3030045F8E0
:1002A000080C286841F20C4640F48070C4F2010644
:1002B000286056F80C0C44F2402461F30B2046F8F9
:1002C0000C0C3068C0F20F0440F00400306000BF36
:1002D000286820F4807028602046FFF7C1FF286856
:1002E00040F4807028602046FFF7BAFF306820F0A5
:1002F000040030602046FFF7B3FF306840F0040090
:1003000030602046FFF7ACFFE2E700001C03000866
:0C03100000000020600400006C010008E8
:04000005080001B13D
:00000001FF
