:020000040800F2
:1000000060040020B1010008B5010008B701000834
:10001000B9010008BB010008BD0100080000000094
:10002000000000000000000000000000BF01000808
:10003000C101000800000000C3010008C50100085C
:10004000C7010008C7010008C7010008C701000870
:10005000C7010008C7010008C7010008C701000860
:10006000C7010008C7010008C7010008C701000850
:10007000C7010008C7010008C7010008C701000840
:10008000C7010008C7010008C7010008C701000830
:10009000C7010008C7010008C7010008C701000820
:1000A000C7010008C7010008C7010008C701000810
:1000B000C7010008C7010008C7010008C701000800
:1000C000C7010008C7010008C7010008C7010008F0
:1000D000C7010008C7010008C7010008C7010008E0
:1000E000C7010008C7010008C7010008C7010008D0
:1000F000C7010008C7010008C7010008C7010008C0
:10010000C7010008C7010008C7010008C7010008AF
:10011000C7010008C7010008C7010008C70100089F
:10012000C7010008C7010008C7010008C70100088F
:1001300000F002F800F02CF80AA090E8000C8244CD
:100140008344AAF10107DA4501D100F021F8AFF2AA
:10015000090EBAE80F0013F0010F18BFFB1A43F0A5
:1001600001031847DC020000EC0200000023002419
:1001700000250026103A28BF78C1FBD8520728BFB7
:1001800030C148BF0B6070471FB51FBD10B510BD13
:1001900000F02BF81146FFF7F7FF00F0B3F800F07E
:1001A00049F803B4FFF7F2FF03BC00F051F8000078
:1001B00008480047FEE7FEE7FEE7FEE7FEE7FEE74A
:1001C000FEE7FEE7FEE7FEE703480449024A044B68
:1001D000704700003101000860000020600400202A
:1001E00060000020704770477047754600F02CF89B
:1001F000AE4605006946534620F00700854618B014
:1002000020B5FFF7E1FFBDE820404FF000064FF0BA
:1002100000074FF000084FF0000BAC46ACE8C009F7
:10022000ACE8C009ACE8C009ACE8C00921F007019E
:100230008D46704710B50446AFF300802046BDE8F8
:100240001040FFF7AEBF00000048704700000020DC
:1002500001491820ABBEFEE72600020070470000EF
:1002600082B00190FFE70198411E019170B1FFE754
:1002700000200090FFE700984009182805D8FFE704
:10028000FFE7009801300090F5E7ECE702B0704717
:1002900082B0019040F60800C4F2010000680090AE
:1002A000009860F40040009000986FF4004188428C
:1002B00004D1FFE701990120086003E001990020C3
:1002C0000860FFE7002002B07047000082B0019094
:1002D00041F20800C4F2010000680090009860F04C
:1002E000200000900098213020B9FFE701990120FB
:1002F000086003E0019900200860FFE7002002B0D9
:100300007047000080B586B00020059041F21802C9
:10031000C4F20202116841F004011160116841F059
:1003200010011160116841F02001116040F60402D3
:10033000C4F201020292116841F0010111601168DA
:1003400021F00E01116040F60C03C4F2010319689C
:1003500041F48071196041F20043C4F2010319684D
:1003600041F480711960196821F46061196041F2EB
:100370000C43C4F20103196841F00401196041F211
:100380000003C4F20103196841F4000119601968FF
:1003900021F4E0011960116841F000411160116819
:1003A00021F0E041116004900390FFE704A8FFF7FB
:1003B0008DFF049801281DD1FFE70120FFF750FFB2
:1003C00004A8FFF783FF0498012812D1FFE740F645
:1003D0000C01C4F201010191086820F480700860EA
:1003E0000A20FFF73DFF0199086840F4807008601B
:1003F000FFE7FFE703A8FFF74BFF039801281DD194
:10040000FFE70120FFF72CFF03A8FFF741FF039848
:10041000012812D1FFE741F20C41C4F20101009121
:10042000086820F0040008600A20FFF719FF00990F
:10043000086840F004000860FFE7FFE7B6E7000047
:100440005004000800000020600400006C01000857
:04000005080001B13D
:00000001FF
