:020000040800F2
:1000000060040020B1010008B5010008B701000834
:10001000B9010008BB010008BD0100080000000094
:10002000000000000000000000000000BF01000808
:10003000C101000800000000C3010008C50100085C
:10004000C7010008C7010008C7010008C701000870
:10005000C7010008C7010008C7010008C701000860
:10006000C7010008C7010008C7010008C701000850
:10007000C7010008C7010008C7010008C701000840
:10008000C7010008C7010008C7010008C701000830
:10009000C7010008C7010008C7010008C701000820
:1000A000C7010008C7010008C7010008C701000810
:1000B000C7010008C7010008C7010008C701000800
:1000C000C7010008C7010008C7010008C7010008F0
:1000D000C7010008C7010008C7010008C7010008E0
:1000E000C7010008C7010008C7010008C7010008D0
:1000F000C7010008C7010008C7010008C7010008C0
:10010000C7010008C7010008C7010008C7010008AF
:10011000C7010008C701000861020008C701000804
:10012000C7010008C7010008C7010008C70100088F
:1001300000F002F800F02CF80AA090E8000C8244CD
:100140008344AAF10107DA4501D100F021F8AFF2AA
:10015000090EBAE80F0013F0010F18BFFB1A43F0A5
:100160000103184734020000440200000023002469
:1001700000250026103A28BF78C1FBD8520728BFB7
:1001800030C148BF0B6070471FB51FBD10B510BD13
:1001900000F02BF81146FFF7F7FF00F07BF800F0B6
:1001A00049F803B4FFF7F2FF03BC00F051F8000078
:1001B00008480047FEE7FEE7FEE7FEE7FEE7FEE74A
:1001C000FEE7FEE7FEE7FEE703480449024A044B68
:1001D000704700003101000860000020600400202A
:1001E00060000020704770477047754600F02CF89B
:1001F000AE4605006946534620F00700854618B014
:1002000020B5FFF7E1FFBDE820404FF000064FF0BA
:1002100000074FF000084FF0000BAC46ACE8C009F7
:10022000ACE8C009ACE8C009ACE8C00921F007019E
:100230008D46704710B50446AFF300802046BDE8F8
:100240001040FFF7AEBF00000048704700000020DC
:1002500001491820ABBEFEE72600020070470000EF
:1002600041F21000C4F200000068C00788B1FFE747
:1002700040F60C01C4F20101086880F48070086047
:1002800041F21001C4F20001086820F0010008608A
:10029000FFE7704784B00020039041F21801C4F2D8
:1002A0000201086840F00400086041F21C01C4F239
:1002B0000201086840F01000086040F60401C4F232
:1002C0000101086820F00F000860086840F0030092
:1002D000086041F20001C4F20001086820F001004A
:1002E000086041F22802C4F2000241F61F4010608B
:1002F00041F22C02C4F2000242F20F70106041F28F
:100300000C02C4F20002106840F00100106008689E
:1003100040F0010008604EF20011CEF200010868C2
:1003200040F400300860052001900198000201901F
:100330004EF60C51CEF200010868029002984FF67A
:10034000FF021040029002980022C0F2FA521043BD
:100350000290019A029810430290029808600420CB
:100360000090009840F003000090009800F00F000B
:1003700000904EF20411CEF20001086840F48000B3
:100380000860029A4EF23641CEF20001087840EA47
:1003900002100870FFE7FEE7A80300080000002035
:0803A000600400006C0100087C
:04000005080001B13D
:00000001FF
